:020000040800F2
:1000000000000120D521000821210008232100083B
:1000100025210008272100082921000800000000F0
:100020000000000000000000000000002B2100087C
:100030002D210008000000002F21000831210008B8
:100040002522000825220008252200082522000874
:100050002522000825220008252200082522000864
:100060002522000825220008252200082522000854
:100070002522000825220008252200082522000844
:100080002522000825220008252200080000000083
:100090000000000000000000000000002522000811
:1000A0002522000825220008252200082522000814
:1000B0002522000825220008252200082522000804
:1000C00025220008252200082522000825220008F4
:1000D0002522000825220008352100080000000024
:1000E0002522000825220008252200080000000023
:1000F00000000000000000000000000025220008B1
:100100000000000025220008252200082522000802
:1001100000000000000000000000000000000000DF
:100120002522000825220008252200082522000893
:100130002522000800000000000000000000000070
:100140000000000000000000000000002522000860
:100150002522000825220008252200082522000863
:1001600025220008252200080000000000000000F1
:10017000000000000000000000000000000000007F
:100180000000000025220008000000000000000020
:04019000252200081C
:1001A00010B5054C237833B9044B13B10448AFF3B1
:1001B00000800123237010BD7000002000000000AB
:1001C000EC3B000808B5034B1BB103490348AFF3F0
:1001D000008008BD0000000074000020EC3B000817
:1001E00001F0FF01102A2BDB10F0070F08D010F8E8
:1001F000013B013A8B422DD010F0070F42B3F6D1EC
:10020000F0B441EA012141EA014122F007047FF004
:1002100000070023F0E80256083C85EA010586EA5B
:10022000010685FA47F5A3FA87F586FA47F6A5FA97
:1002300087F68EB9EED1F0BC01F0FF0102F00702A3
:1002400032B110F8013B013A83EA010313B1F8D14E
:100250000020704701387047002D06BF354603382F
:10026000073815F0010F07D1013015F4807F02BF68
:10027000013015F4C03F0130F0BC0138704700BFB9
:1002800081F0004102E000BF83F0004330B54FEA47
:1002900041044FEA430594EA050F08BF90EA020FB4
:1002A0001FBF54EA000C55EA020C7FEA645C7FEA47
:1002B000655C00F0E2804FEA5454D4EB5555B8BF6A
:1002C0006D420CDD2C4480EA020281EA030382EADB
:1002D000000083EA010180EA020281EA0303362D6D
:1002E00088BF30BD11F0004F4FEA01314FF4801C40
:1002F0004CEA113102D0404261EB410113F0004F52
:100300004FEA03334CEA133302D0524263EB430308
:1003100094EA050F00F0A780A4F10104D5F1200EA6
:100320000DDB02FA0EFC22FA05F2801841F1000101
:1003300003FA0EF2801843FA05F359410EE0A5F1D5
:1003400020050EF1200E012A03FA0EFC28BF4CF006
:10035000020C43FA05F3C01851EBE37101F00045BC
:1003600007D54FF0000EDCF1000C7EEB00006EEBC9
:100370000101B1F5801F1BD3B1F5001F0CD3490853
:100380005FEA30004FEA3C0C04F101044FEA4452AA
:1003900012F5800F80F09A80BCF1004F08BF5FEA31
:1003A000500C50F1000041EB045141EA050130BD11
:1003B0005FEA4C0C404141EB010111F4801FA4F1B4
:1003C0000104E9D191F0000F04BF01460020B1FA09
:1003D00081F308BF2033A3F10B03B3F120020CDA41
:1003E0000C3208DD02F1140CC2F10C0201FA0CF01F
:1003F00021FA02F10CE002F11402D8BFC2F1200C84
:1004000001FA02F120FA0CFCDCBF41EA0C01904039
:10041000E41AA2BF01EB0451294330BD6FEA040482
:100420001F3C1CDA0C340EDC04F11404C4F120026D
:1004300020FA04F001FA02F340EA030021FA04F37F
:1004400045EA030130BDC4F10C04C4F1200220FAD6
:1004500002F001FA04F340EA0300294630BD21FA14
:1004600004F0294630BD94F0000F83F4801306BFDA
:1004700081F480110134013D4EE77FEA645C18BFCE
:100480007FEA655C29D094EA050F08BF90EA020F65
:1004900005D054EA000C04BF1946104630BD91EA5D
:1004A000030F1EBF0021002030BD5FEA545C05D160
:1004B0004000494128BF41F0004130BD14F580049F
:1004C0003CBF01F5801130BD01F0004545F0FE4113
:1004D00041F470014FF0000030BD7FEA645C1ABF48
:1004E000194610467FEA655C1CBF0B46024650EA7F
:1004F000013406BF52EA033591EA030F41F40021AB
:1005000030BD00BF90F0000F04BF0021704730B530
:100510004FF4806404F132044FF000054FF0000105
:1005200050E700BF90F0000F04BF0021704730B5C6
:100530004FF4806404F1320410F0004548BF40429B
:100540004FF000013EE700BF42004FEAE2014FEAF0
:1005500031014FEA02701FBF12F07F4393F07F4FCB
:1005600081F06051704792F0000F14BF93F07F4FFD
:10057000704730B54FF4607401F0004521F0004140
:1005800020E700BF50EA010208BF704730B54FF0C6
:1005900000050AE050EA010208BF704730B511F0CB
:1005A000004502D5404261EB41014FF4806404F103
:1005B00032045FEA915C3FF4DCAE4FF003025FEA85
:1005C000DC0C18BF03325FEADC0C18BF033202EB0D
:1005D000DC02C2F1200300FA03FC20FA02F001FA67
:1005E00003FE40EA0E0021FA02F11444C1E600BF06
:1005F00070B54FF0FF0C4CF4E06C1CEA11541DBFB9
:100600001CEA135594EA0C0F95EA0C0F00F0DEF883
:100610002C4481EA030621EA4C5123EA4C5350EA68
:10062000013518BF52EA033541F4801143F48013B9
:1006300038D0A0FB02CE4FF00005E1FB02E506F04A
:100640000042E0FB03E54FF00006E1FB03569CF09F
:10065000000F18BF4EF0010EA4F1FF04B6F5007FA5
:1006600064F5407404D25FEA4E0E6D4146EB060617
:1006700042EAC62141EA55514FEAC52040EA5E50A0
:100680004FEACE2EB4F1FD0C88BFBCF5E06F1ED84A
:10069000BEF1004F08BF5FEA500E50F1000041EB81
:1006A000045170BD06F0004646EA010140EA02002E
:1006B00081EA0301B4EB5C04C2BFD4EB0C0541EA50
:1006C000045170BD41F480114FF0000E013C00F365
:1006D000AB8014F1360FDEBF002001F0004170BD89
:1006E000C4F10004203C35DA0C341BDC04F11404A2
:1006F000C4F1200500FA05F320FA04F001FA05F22E
:1007000040EA020001F0004221F0004110EBD370FA
:1007100021FA04F642EB06015EEA430E08BF20EA26
:10072000D37070BDC4F10C04C4F1200500FA04F3C9
:1007300020FA05F001FA04F240EA020001F000415B
:1007400010EBD37041F100015EEA430E08BF20EACE
:10075000D37070BDC4F1200500FA05F24EEA020E16
:1007600020FA04F301FA05F243EA020321FA04F045
:1007700001F0004121FA04F220EA020000EBD370FC
:100780005EEA430E08BF20EAD37070BD94F0000FFC
:100790000FD101F00046400041EB010111F4801F30
:1007A00008BF013CF7D041EA060195F0000F18BFE1
:1007B000704703F00046520043EB030313F4801F1D
:1007C00008BF013DF7D043EA0603704794EA0C0FD7
:1007D0000CEA135518BF95EA0C0F0CD050EA4106ED
:1007E00018BF52EA4306D1D181EA030101F000416A
:1007F0004FF0000070BD50EA410606BF1046194692
:1008000052EA430619D094EA0C0F02D150EA01369D
:1008100013D195EA0C0F05D152EA03361CBF1046DE
:1008200019460AD181EA030101F0004141F0FE417D
:1008300041F470014FF0000070BD41F0FE4141F401
:10084000780170BD70B54FF0FF0C4CF4E06C1CEA01
:1008500011541DBF1CEA135594EA0C0F95EA0C0FB6
:1008600000F0A7F8A4EB050481EA030E52EA033571
:100870004FEA013100F088804FEA03334FF0805592
:1008800045EA131343EA12634FEA022245EA1115BF
:1008900045EA10654FEA00260EF000419D4208BF70
:1008A000964244F1FD0404F5407402D25B084FEA1D
:1008B0003202B61A65EB03055B084FEA32024FF4C9
:1008C00080104FF4002CB6EB020E75EB030E22BF26
:1008D000B61A754640EA0C005B084FEA3202B6EBE6
:1008E000020E75EB030E22BFB61A754640EA5C0095
:1008F0005B084FEA3202B6EB020E75EB030E22BF25
:10090000B61A754640EA9C005B084FEA3202B6EB25
:10091000020E75EB030E22BFB61A754640EADC00E4
:1009200055EA060E18D04FEA051545EA16754FEA46
:1009300006164FEAC30343EA52734FEAC2025FEA64
:100940001C1CC0D111F4801F0BD141EA00014FF0F3
:1009500000004FF0004CB6E711F4801F04BF0143C4
:100960000020B4F1FD0C88BFBCF5E06F3FF6AFAEE0
:10097000B5EB030C04BFB6EB020C5FEA500C50F170
:10098000000041EB045170BD0EF0004E4EEA1131F3
:1009900014EB5C04C2BFD4EB0C0541EA045170BDFA
:1009A00041F480114FF0000E013C90E645EA060E3E
:1009B0008DE60CEA135594EA0C0F08BF95EA0C0F6C
:1009C0003FF43BAF94EA0C0F0AD150EA01347FF4B4
:1009D00034AF95EA0C0F7FF425AF104619462CE78B
:1009E00095EA0C0F06D152EA03353FF4FDAE1046EE
:1009F000194622E750EA410618BF52EA43067FF43F
:100A0000C5AE50EA41047FF40DAF52EA43057FF4CE
:100A1000EBAE12E74FF0FF3C06E000BF4FF0010CD9
:100A200002E000BF4FF0010C4DF804CD4FEA410C3D
:100A30007FEA6C5C4FEA430C18BF7FEA6C5C1BD00A
:100A400001B050EA410C0CBF52EA430C91EA030F8B
:100A500002BF90EA020F0020704710F1000F91EAE8
:100A6000030F58BF994208BF90422CBFD8176FEAB6
:100A7000E37040F0010070474FEA410C7FEA6C5C84
:100A800002D150EA013C07D14FEA430C7FEA6C5C8B
:100A9000D6D152EA033CD3D05DF8040B704700BFB7
:100AA0008446104662468C461946634600E000BF05
:100AB00001B5FFF7B7FF002848BF10F1000F01BDD7
:100AC0004DF808EDFFF7F4FF0CBF012000205DF8A2
:100AD00008FB00BF4DF808EDFFF7EAFF34BF012027
:100AE00000205DF808FB00BF4DF808EDFFF7E0FFC0
:100AF00094BF012000205DF808FB00BF4DF808ED11
:100B0000FFF7CEFF94BF012000205DF808FB00BF77
:100B10004DF808EDFFF7C4FF34BF012000205DF859
:100B200008FB00BF4FEA410212F5001215D211D5A1
:100B30006FF47873B3EB625212D94FEAC12343F0DA
:100B4000004343EA505311F0004F23FA02F018BF5C
:100B5000404270474FF00000704750EA013005D125
:100B600011F0004008BF6FF0004070474FF00000E8
:100B7000704700BF53B94AB9002908BF00281CBFFD
:100B80004FF0FF314FF0FF3000F07AB9ADF1080CB3
:100B90006DE904CE00F006F8DDF804E0DDE902239B
:100BA00004B070472DE9F0478C460D460446089E78
:100BB000002B51D18A4217466DD9B2FA82FEBEF19E
:100BC000000F0BD0CEF1200C01FA0EF520FA0CFC30
:100BD00002FA0EF74CEA050C00FA0EF44FEA174A37
:100BE000250CBCFBFAF81FFA87F90AFB18CC45EA7A
:100BF0000C4508FB09F3AB420AD9ED1908F1FF32A5
:100C000080F02381AB4240F22081A8F102083D44EC
:100C1000ED1AA4B2B5FBFAF00AFB105544EA0544FC
:100C200000FB09F9A14509D9E41900F1FF3380F06F
:100C30000A81A14540F2078102383C44A4EB090433
:100C400040EA08400021002E61D024FA0EF400236F
:100C500034607360BDE8F0878B4207D9002E54D012
:100C6000002186E821000846BDE8F087B3FA83F149
:100C7000002940F08E80AB4202D3824200F2FA801B
:100C8000841A65EB03050120AC46002E3FD086E8B0
:100C90001010BDE8F08712B90127B7FBF2F7B7FAD9
:100CA00087FEBEF1000F34D1EB1B3A0C1FFA87FC14
:100CB0000121B3FBF2F8250C02FB183345EA03458A
:100CC0000CFB08F3AB4207D9ED1908F1FF3002D253
:100CD000AB4200F2D1808046ED1AA3B2B5FBF2F030
:100CE00002FB105543EA05440CFB00FCA44507D960
:100CF000E41900F1FF3302D2A44500F2B88018468F
:100D0000A4EB0C0440EA08409DE731463046BDE8BC
:100D1000F087CEF1200405FA0EF307FA0EF720FA59
:100D200004F83A0C25FA04F448EA0308B4FBF2F19B
:100D30004FEA184502FB11441FFA87FC45EA0445B7
:100D400001FB0CF3AB4200FA0EF409D9ED1901F1E5
:100D5000FF3080F08A80AB4240F2878002393D4408
:100D6000EB1A1FFA88F5B3FBF2F002FB103345EAE9
:100D7000034500FB0CF3AB4207D9ED1900F1FF3836
:100D80006FD2AB426DD902383D44EB1A40EA0141C3
:100D90008FE7C1F1200722FA07F88B4005FA01F42A
:100DA00048EA030320FA07FE4FEA134CFD404EEADF
:100DB000040EB5FBFCF94FEA1E440CFB19551FFA53
:100DC00083F844EA054509FB08F4AC4202FA01F253
:100DD00000FA01FA08D9ED1809F1FF3043D2AC420C
:100DE00041D9A9F102091D442D1B1FFA8EFEB5FB46
:100DF000FCF00CFB10554EEA054400FB08F8A0453A
:100E000007D9E41800F1FF3529D2A04527D90238C7
:100E10001C4440EA0940A4EB0804A0FB02894C45AD
:100E2000C6464D4615D312D056B1BAEB0E0364EB4D
:100E3000050404FA07F7CB401F43CC4037607460C9
:100E40000021BDE8F0871846F8E69046E0E6C24586
:100E5000EAD2B8EB020E69EB03050138E4E7284655
:100E6000D7E7404691E78146BEE7014678E702387A
:100E70003C4445E7084608E7A8F102083D442BE753
:100E8000704700BF38B50E4A0E4B054618784FF430
:100E90007A73B3FBF0F31068B0FBF3F000F0A8F83E
:100EA000044658B90F2D09D8024629464FF0FF30A5
:100EB00000F05EF8044B20461D6038BD012038BDAF
:100EC00008000020000000200400002008B50B4BA3
:100ED0001A6842F400721A601A6842F480621A605A
:100EE0001A6842F480721A60032000F02FF8002084
:100EF000FFF7C8FF01F068F8002008BD003C024081
:100F0000034A044B11681B780B441360704700BF01
:100F1000A400002000000020014B1868704700BFAB
:100F2000A400002038B50446FFF7F6FF631C1CBF81
:100F3000054B1B78054618BFE418FFF7EDFF401B73
:100F40008442FAD838BD00BF00000020074AD368A9
:100F500023F4E0631B041B0C43F0BF63000243F463
:100F6000003300F4E0600343D360704700ED00E01D
:100F7000174B30B5DC68C4F30224C4F10703251D08
:100F8000042B28BF0423062D4FF0010505FA03F3B7
:100F900003F1FF338CBF033C00241940A14005FA44
:100FA00004F4013C2240002842EA01024FEA021206
:100FB000AFBF00F1604000F00F00064BD2B2A5BFFA
:100FC00000F56140D2B21A5480F8002330BD00BF52
:100FD00000ED00E014ED00E04209012300F01F00E5
:100FE00003FA00F0014B43F82200704700E100E0F3
:100FF0000138B0F1807F0AD2064B074A5860F021D1
:1010000082F823100020072298601A6070470120A0
:10101000704700BF10E000E000ED00E02DE9F04F68
:1010200085B00B68DFF89C81644A01934FF0010999
:101030000023019C09FA03F707EA0406B74240F0CF
:10104000AD804C6824F0100ABAF1020F16D14FEAB5
:10105000D30C00EB8C0C03F0070BDCF820504FEAAC
:101060008B0B4FF00F0E0EFA0BFE25EA0E0E0D69DC
:1010700005FA0BF545EA0E05CCF820504FEA430C73
:101080000325D0F800B005FA0CF5ED4304F0030E8B
:101090000BEA050B0EFA0CFE0AF1FF3A4EEA0B0EB4
:1010A000BAF1010F0095C0F800E015D8D0F808E0BB
:1010B00005EA0E0ECD6805FA0CFA4AEA0E0EC0F8E3
:1010C00008E0D0F804E02EEA0707C4F3001E0EFA89
:1010D00003FE4EEA07074760C768009D3D408F68E2
:1010E00007FA0CF73D43C560E50057D54FF0000BFC
:1010F000CDF80CB0D8F84470314D47F48047C8F8AB
:101100004470D8F8447007F480470397039F23F096
:10111000030707F1804707F59C3703F0030CD7F866
:1011200008A04FEA8C0C4FF00F0E0EFA0CFEA842EE
:101130002AEA0E0E39D005F58065A84237D005F5AC
:101140008065A84235D005F58065A84233D005F505
:101150008065A84214BF0725042505FA0CF545EA69
:101160000E05BD601568F74314F4803F0CBF3D4089
:1011700035431560556814F4003F0CBF3D403543BE
:101180005560956814F4801F0CBF3D403543956051
:10119000D568A40254BF3D403543D5600133102BC0
:1011A0007FF447AF05B0BDE8F08F5D46D5E7012578
:1011B000D3E70225D1E70325CFE700BF003C01407C
:1011C00000000240003802402DE9F341044618B9FE
:1011D000012002B0BDE8F0810368DD0710D4236868
:1011E000980758D423681A0700F19A8023685B0790
:1011F00000F1B880A269002A40F019810020E8E7D8
:10120000A64B9A6802F00C02042A07D09A6802F0F2
:101210000C02082A0AD15B68590207D59F4B1B684C
:101220009A03DCD56368002BD9D1D1E763689B4D65
:10123000B3F5803F11D12B6843F480332B60FFF767
:101240006BFE964D06462B689B03C8D4FFF764FEE1
:10125000801B6428F7D90320BBE7B3F5A02F04D186
:101260002B6843F480232B60E5E72A6822F4803260
:101270002A602A6822F480222A60002BDFD1FFF73F
:101280004BFE06462B689F03A9D5FFF745FE801B42
:101290006428F7D9DFE7814B9A6812F00C0F07D06A
:1012A0009A6802F00C02082A11D15B685E020ED423
:1012B0007A4B1A68950702D5E268012A88D11A6824
:1012C000216922F0F80242EAC1021A608AE7E26864
:1012D000734BB2B101221A60FFF71EFE6F4D064636
:1012E0002B68980707D52B68226923F0F80343EA97
:1012F000C2032B6076E7FFF70FFE801B0228EFD9B1
:10130000A9E71A60FFF708FE644D06462B689907A7
:101310007FF568AFFFF700FE801B0228F6D99AE739
:101320006269604B7AB101221A60FFF7F5FD5B4DEF
:1013300006466B6F9F073FF559AFFFF7EDFD801B2A
:101340000228F6D987E71A60FFF7E6FD534D0646F7
:101350006B6F98077FF54AAFFFF7DEFD801B022811
:10136000F6D978E74D4B1A6C12F0805228D10192D1
:101370001A6C42F080521A641B6C03F08053019384
:10138000019B0126484D2B68D9051BD5A368434D09
:10139000012B27D12B6F43F001032B67FFF7BCFD17
:1013A0003E4D074641F288382B6F9B0739D5002EFA
:1013B0003FF420AF394A136C23F08053136419E7CC
:1013C0000026DFE72B6843F480732B60FFF7A4FD52
:1013D00007462B68DA05D9D4FFF79EFDC01B02280B
:1013E000F7D938E7052B04D12B6F43F004032B67A3
:1013F000D0E72A6F22F001022A672A6F22F0040246
:101400002A67002BCAD1FFF787FD41F288380746CB
:101410002B6F9807CBD5FFF77FFDC01B4045F7D951
:1014200019E7FFF779FDC01B4045BDD913E71B4DF8
:10143000AB6803F00C03082B3FF4CAAE1B4E00232D
:10144000022A336034D1FFF767FD07462B68990104
:101450001ED4226AE3691343626A43EA8213E26A92
:1014600043EA0263A26A0D4C5208013A43EA02437E
:101470006B6001233360FFF74FFD054623689A0137
:101480003FF5BCAEFFF748FD401B0228F6D9E2E667
:10149000FFF742FDC01B0228D8D9DCE60038024025
:1014A00000004742800E4742007000406000474203
:1014B000FFF732FD04462B689B017FF59FAEFFF7D7
:1014C0002BFD001B0228F6D9C5E600BF134908B55D
:1014D0008B6803F00C03042B03D0082B03D01048B7
:1014E00008BD104808BD4A684B68496813F480037A
:1014F00014BF0C480A48C1F3881118BF002302F03A
:101500003F02A1FB0001FFF735FB044B5B68C3F30F
:10151000014301335B00B0FBF3F008BD003802402B
:101520000024F40040787D012DE9F0410D46044689
:1015300010B90120BDE8F081444B1A6802F00F0297
:101540008A4228D321688F072DD4C80740D43F4B47
:101550001A6802F00F02954266D3226851076CD4D4
:10156000130707D53A4A2169936823F4604343EA95
:10157000C1039360FFF7AAFF354B364A9B68C3F35C
:101580000313D35CD840344B18600020FFF77AFC7B
:101590000020BDE8F081CAB21A701B6803F00F0387
:1015A0009942C6D1CEE72A4B11F0040F1EBF9A68AC
:1015B00042F4E0529A600E0742BF9A6842F46042D9
:1015C0009A609A68A06822F0F00202439A60BCE731
:1015D00062681F4B012A1DD11B6813F4003FA8D07D
:1015E0001B4EB36823F003031343B360FFF794FC6F
:1015F00041F288380746B368626803F00C03B3EB26
:10160000820FA4D0FFF788FCC01B4045F3D903200C
:10161000BDE8F081911E01291B6802D813F0007FFC
:10162000DDE713F0020FDAE7EAB21A701B6803F085
:101630000F039D427FF47DAF8FE70549E0688B681B
:1016400023F4E05303438B608AE700BF003C024071
:10165000003802401A3C000808000020044B054AEC
:101660009B68C3F38223D35C034A1068D840704759
:10167000003802402A3C000808000020044B054ABC
:101680009B68C3F34233D35C034A1068D840704769
:10169000003802402A3C0008080000202DE9F047ED
:1016A0000668C2683369C16923F440531343336148
:1016B000044683680069F2680343606922F41642B5
:1016C000034322F00C020B431343F3607369A269D6
:1016D00023F440731343B1F5004F73617A4B7CD10F
:1016E0009E4203D003F580639E4244D1FFF7C6FFBC
:1016F000192505FB00F360684FF064094000B3FB57
:10170000F0F3B3FBF9F34FEA0318FFF7B7FF636891
:1017100068435B00B0FBF3F7FFF7B0FF6368684313
:101720005B00B0FBF3F3B3FBF9F309FB1373DB00CE
:101730003233B3FBF9F35B0003F4F877FFF79EFF56
:10174000626868435200B0FBF2FAFFF797FF6368E4
:1017500068435B00B0FBF3F3B3FBF9F309FB13A39E
:10176000DB003233B3FBF9F303F0070343443B449C
:10177000B360BDE8F087FFF771FF192505FB00F3A3
:1017800060684FF064094000B3FBF0F3B3FBF9F37A
:101790004FEA0318FFF762FF636868435B00B0FB22
:1017A000F3F7FFF75BFF636868435B00B0FBF3F39D
:1017B000B3FBF9F309FB1373DB003233B3FBF9F32B
:1017C0005B0003F4F877FFF749FF62686843520053
:1017D000B0FBF2FAFFF742FFB9E79E4202D03B4B63
:1017E0009E4240D1FFF74AFF676819254FF0640910
:1017F00005FB00F3BF00B3FBF7F3B3FBF9F31F01E5
:10180000FFF73CFF636868439B00B0FBF3F8FFF70A
:1018100035FF636868439B00B0FBF3F3B3FBF9F358
:1018200009FB13831B013233B3FBF9F303F0F00818
:10183000FFF724FF626868439200B0FBF2FAFFF7FB
:101840001DFF636868439B00B0FBF3F3B3FBF9F340
:1018500009FB13A31B013233B3FBF9F303F00F03AE
:1018600043EA080383E7FFF7F9FE676819254FF09D
:10187000640905FB00F3BF00B3FBF7F3B3FBF9F317
:101880001F01FFF7EBFE636868439B00B0FBF3F8B2
:10189000FFF7E4FE636868439B00B0FBF3F3B3FB20
:1018A000F9F309FB13831B013233B3FBF9F303F0A4
:1018B000F008FFF7D3FE626868439200B0FBF2FACB
:1018C000FFF7CCFEBDE700BF00100140001401404F
:1018D000F8B504460E4617461D4621680B6836EAE1
:1018E000030301D10020F8BD6B1CF7D095B9236824
:1018F000DA6822F4D072DA605A6922F001025A6181
:10190000202384F8393084F83A30002384F83830C2
:101910000320F8BDFFF700FBC01B8542DDD2E6E7E0
:1019200010B5044640B390F8393003F0FF021BB9FC
:1019300080F8382000F064FB2268242384F83930D2
:10194000D36823F40053D3602046FFF7A7FE236833
:101950001A6922F490421A615A6922F02A025A61E5
:10196000DA6842F40052DA6000202023E06384F851
:10197000393084F83A3010BD012010BD10B504464E
:1019800060B390F8393003F0FF021BB980F83820BB
:1019900000F036FB2268242384F83930D36823F41E
:1019A0000053D3602046FFF779FE23681A6922F4BA
:1019B00090421A615A6922F022025A615A6942F031
:1019C00008025A61DA6842F40052DA6000202023EB
:1019D000E06384F8393084F83A3010BD012010BD3E
:1019E0002DE9F0411F4690F83930202B04460D4672
:1019F00090464FD100294AD0002A48D090F838307C
:101A0000012B47D0012380F838300023C363212302
:101A100080F83930FFF780FAA4F824800646A4F84D
:101A20002680E38C9BB26BB93B4632464021204670
:101A3000FFF74EFFB0B9202384F8393084F838001E
:101A4000BDE8F081E38C013B9BB2E384A368B3F56E
:101A5000805F32463B464FF0800120460ED1FFF7B3
:101A600037FF10B10320BDE8F0812B882268C3F353
:101A700008035360236943B90235D2E7FFF728FF13
:101A80000028EFD123682A785A600135C9E7012080
:101A9000BDE8F0810220BDE8F08100001FB5FF2302
:101AA0008DF804308DF8053005238DF807300323B9
:101AB0008DF8083020238DF809308DF80A100023A6
:101AC000090A8DF806008DF80C308DF80B101A46B7
:101AD00001A9194401338978062B0A44D2B2F7D1FF
:101AE000D2438DF80C20074A92F83930202BFBD1D5
:101AF0000A23092201A90348FFF772FF05B05DF828
:101B000004FB00BFA80000201FB5FF238DF80430A0
:101B10008DF8053005238DF8073003238DF8083044
:101B20001E238DF809308DF80A100023090A8DF85C
:101B300006008DF80C308DF80B101A4601A91944D7
:101B400001338978062B0A44D2B2F7D1D2438DF8FB
:101B50000C20074A92F83930202BFBD10A230922A6
:101B600001A90348FFF73CFF05B05DF804FB00BF87
:101B7000A800002007B50B4A106851680A4A6B4656
:101B800003C392F83930202BFBD10A23082269467F
:101B90000548FFF725FF4FF47A70FFF7C3F903B04C
:101BA0005DF804FB083C00082801002030B595B022
:101BB0003022002108A800F05BFB0021142203A8BA
:101BC00000F056FB00251C4B01951A6C42F0805228
:101BD0001A641B6C194A03F080530193019B029510
:101BE000136823F4404343F40043136013680F95D4
:101BF00003F440430293029B01230B9310230C93A5
:101C00000823109354230224119308A80423139348
:101C100008940E941294FFF7D7FA0F2303932146EA
:101C20004FF4805303A80494059506930795FFF796
:101C30007BFC15B030BD00BF003802400070004092
:101C40002DE9F04F2DED068B8FB00024FFF73EF904
:101C5000FFF7ACFFD24B07941A6BD248D24F42F039
:101C600080021A631A6B02F080020792079A0894A6
:101C70001A6B42F001021A631B6B846003F00103CC
:101C80000893089BC94BC4600C254FF4E13680E8EB
:101C90004800046145618461C461FFF76FFEC44878
:101CA0008460C460046145618461C461076046600A
:101CB000FFF736FEFB68BF4843F02003FB60BE4BD6
:101CC000846080E84800C460046145618461C46147
:101CD000FFF726FE1422214609A800F0C9FAFFF7F3
:101CE00049FF4FF47A70FFF71DF980210220FFF7BA
:101CF000D5FE80210120FFF7D1FE4FF4FA60FFF7F7
:101D000011F9CD210220FFF7FFFECD210120FFF7C1
:101D1000FBFE4FF4FA60FFF705F9A84DCD24A4F1BE
:101D2000CD00FEF7FFFB0022A54BFEF761FC9AA356
:101D3000D3E90023FEF75CFC41EC180B214601209F
:101D4000FFF7E2FE4FF0CD0A2A786B78592AFDD1D1
:101D5000592BFDD1AAF1CD00FEF7E4FB0022984BF0
:101D6000FEF746FC8CA3D3E90023FEF741FC41ECCF
:101D7000190B51460220FFF7C7FE6420FFF7D2F887
:101D8000EB78A87800EB032080B2FEF7CBFBB0EE37
:101D9000490AF0EE690A06460F4600F0D5FEB0EE9D
:101DA00040AAF0EE60AAB0EE480AF0EE680A00F031
:101DB00087FE59EC108BB0EE490AF0EE690A00F08C
:101DC0007FFE53EC102BB0EE480AF0EE680ACDE926
:101DD000042300F0B9FEDDE90423304639468DEDD9
:101DE000020BFEF705FC42464B46FEF701FCFEF7F0
:101DF00099FE53EC1A2B834639463046FEF7F8FB22
:101E000042464B46FEF7F4FBFEF78CFE9DED020BBF
:101E1000C0F1000853EC102B30463946FEF7E8FBC2
:101E2000FEF780FE5B4600904246664909A800F036
:101E300027FA0AF1030A0A23142209A95D48FFF7C9
:101E4000CFFDBAF54D7F7FF47FAF0334A4B2B4F574
:101E5000FF7F28BF4FF4FF74A4F1CD00FEF762FBB3
:101E60000022574BFEF7C4FB4BA3D3E90023FEF738
:101E7000BFFB41EC180B21460220FFF745FE40F264
:101E8000333A2A786B78592AFDD1592BFDD1AAF122
:101E9000CD00FEF747FB0022494BFEF7A9FB3EA30E
:101EA000D3E90023FEF7A4FB41EC190B51460220B5
:101EB000FFF72AFE6420FFF735F8EB78A87800EBEF
:101EC000032080B2FEF72EFBB0EE490AF0EE690A5D
:101ED00006460F4600F038FEB0EE40AAF0EE60AACB
:101EE000B0EE480AF0EE680A00F0EAFD59EC108BFB
:101EF000B0EE490AF0EE690A00F0E2FD53EC102B57
:101F0000B0EE480AF0EE680ACDE9042300F01CFEAA
:101F1000DDE90423304639468DED020BFEF768FB00
:101F200042464B46FEF764FBFEF7FCFD53EC1A2BD2
:101F3000834639463046FEF75BFB42464B46FEF78A
:101F400057FBFEF7EFFD9DED020BC0F1000853ECCF
:101F5000102B30463946FEF74BFBFEF7E3FD5B46A0
:101F600000904246174909A800F08AF9AAF1030A2D
:101F70000A23142209A90F48FFF732FDBAF1CC0F4A
:101F80007FF47FAF0334A4B2B4F5FF7F28BF4FF4D2
:101F9000FF74C4E6AFF30080000000A046DF913F6D
:101FA00000380240A800002000440040001001401A
:101FB00028010020E8000020001401408C000020CF
:101FC00000C0D23F103C000882B00C4B00210091B1
:101FD0005A6C42F480425A645A6C02F48042009275
:101FE000009A01911A6C42F080521A641B6C03F043
:101FF00080530193019B02B0704700BF003802403C
:1020000010B504468CB01422002107A800F030F966
:1020100023683E4A934223D13D4B002101915A6CE3
:1020200042F010025A645A6C02F010020192019AB6
:1020300002911A6B42F001021A631B6B03F0010359
:102040000293029B4FF40073079312230893032318
:102050000A93072307A92F480B93FEF7DFFF2EE013
:102060002D4A93422DD12A4B2A48002403941A6CFE
:1020700042F400321A641A6C02F400320392039A9A
:1020800004941A6B42F001021A631B6B03F0010304
:102090000493049B0C2307931223089301230993B1
:1020A00003230A9307A907230B93FEF7B7FF262004
:1020B00022462146FEF75CFF2620FEF78DFF0CB07E
:1020C00010BD164A9342FAD1114B002105915A6C6A
:1020D00042F020025A645A6C02F020020592059ADE
:1020E00006911A6B42F001021A631B6B03F00103A5
:1020F0000693069B4FF4C0530793122308930123C2
:10210000099303230A930823A4E700BF00100140AA
:10211000003802400000024000440040001401402A
:102120007047FEE7FEE7FEE7FEE77047704770473F
:10213000FEF7E6BE114A13689B061DD5104B50688A
:102140001978104A0829505484BF00211970197851
:1021500079B1505C59280CD1114411F8010C59285F
:1021600007D111F8021C59291FBF012119701070E5
:1021700050701A7801321A70704700BF0044004056
:10218000950000208C0000200F49D1F8883043F4DE
:102190007003C1F888300D4B1A68002042F001022C
:1021A0001A6098601A6822F0847222F480321A60F1
:1021B000074A5A601A6822F480221A60D8604FF0E9
:1021C00000638B60704700BF00ED00E00038024004
:1021D00010300024DFF834D0002103E00C4B5B58B2
:1021E000435004310B480C4B42189A42F6D30B4A29
:1021F00002E0002342F8043B094B9A42F9D3FFF76F
:10220000C3FF00F011F8FFF71BFD7047000001202D
:10221000503E0008000000207000002070000020E8
:102220006C010020FEE7000070B50D4E0D4CA41BA4
:10223000A4100025A54209D10B4E0C4C01F0D6FC90
:10224000A41BA4100025A54205D170BD56F8253069
:1022500098470135EEE756F8253098470135F2E703
:10226000483E0008483E0008483E00084C3E000832
:1022700002440346934200D1704703F8011BF9E77B
:102280000EB400B59CB04FF402711DABADF8141044
:10229000029006906FF000410A48049107914FF6B2
:1022A000FF7153F8042BADF816100068019302A9D2
:1022B00000F066F8029B00221A701CB05DF804EB77
:1022C00003B070470C0000202DE9F0478E689E4255
:1022D00082460C469146984635D88A8912F4906F0A
:1022E00031D0256809696F1A6569022305EB450538
:1022F00095FBF3F508F101033B449D4238BF1D46B1
:10230000530531D5294600F039FB064650B90C2358
:10231000CAF80030A38943F04003A3814FF0FF3097
:10232000BDE8F0873A46216900F0B4FAA38923F4A6
:10233000906343F08003A381266165613E44ED1BF9
:102340002660A5604646464528BF46463246494671
:10235000206800F0AAFAA3689B1BA36023681E44B0
:1023600026600020BDE8F0872A4600F065FB06469F
:102370000028E1D12169504600F0B2FAC7E7000019
:102380002DE9F04F9DB0804603938B891C060D46C6
:1023900016460FD50B696BB9402100F0EFFA2860A3
:1023A000286128B90C23C8F800304FF0FF30C5E091
:1023B00040236B610023099320238DF829303023BB
:1023C0008DF82A304FF0010B37463C4614F8013B9C
:1023D000002B3CD1B7EB060A0BD0534632462946B8
:1023E0004046FFF771FF013000F0A380099B534482
:1023F00009933B78002B00F09C8000234FF0FF32C4
:1024000004930793059206938DF853301A9305228F
:1024100021785048FDF7E4FE671C049BD8B9D90623
:1024200044BF20228DF853201A0744BF2B228DF879
:10243000532022782A2A16D0079A00210A202746FC
:1024400001343B78303B092B51D9C9B111E0252B20
:10245000C0D02746B9E73F4A801A0BFA00F018436C
:1024600004903C46D3E7039A111D12680391002A99
:1024700001DB079204E0524243F002030792049307
:102480003B782E2B0ED17B782A2B07F1010132D11C
:10249000039B1A1D1B680392002BB8BF4FF0FF333C
:1024A000023705932C4C397803222046FDF798FE1D
:1024B00038B14023001B03FA00F0049B034304934C
:1024C0000137397825488DF8281006227E1CFDF743
:1024D00087FE002835D0224BFBB9039B073323F03E
:1024E000070308330393099B4B4409936CE700FBF4
:1024F00002320121A3E70023059318460A240F4660
:1025000001313A78303A092A03D9002BCAD0059014
:10251000C8E704FB00200123F1E703AB00932A4640
:10252000104B04A94046AFF30080B0F1FF3F814655
:10253000D9D1AB895B063FF538AF09981DB0BDE82E
:10254000F08F03AB00932A46064B04A9404600F0E7
:1025500081F8EAE7323C0008383C00083C3C0008BF
:1025600000000000C92200082DE9F04791461F46EF
:102570008A680B69DDF820809342B8BF1346C9F81A
:10258000003091F8432006460C4612B10133C9F8D9
:1025900000302368990642BFD9F800300233C9F8E9
:1025A0000030256815F0060507D104F1190AE36823
:1025B000D9F800209B1A9D4229DB94F84330226809
:1025C000003318BF012392062ED404F1430239468A
:1025D0003046C047013021D02368E568D9F8002093
:1025E00003F00603042B08BFAD1AA36822690CBFD1
:1025F00025EAE57500259342C4BF9B1AED184FF0FC
:1026000000091A344D451BD10020BDE8F087012395
:10261000524639463046C047013003D14FF0FF30B3
:10262000BDE8F0870135C2E7E1185A1C302081F877
:102630004300224494F8451082F843100233C4E763
:102640000123224639463046C0470130E6D009F121
:102650000109D7E72DE9F04317460A7E85B06E2AB7
:10266000984606460C460C9B01F1430E00F0BC80D8
:102670001AD8632A2ED00AD8002A00F0C880582A17
:1026800000F08A8004F1420584F842202AE0642A9E
:1026900001D0692AF6D121681A6811F0800F23D081
:1026A000111D1960136827E0732A00F0B48008D860
:1026B0006F2A2AD0702AE5D10A6842F020020A6007
:1026C00003E0752A21D0782ADCD1782284F84520CD
:1026D0006E4964E01A6801F14205111D1960136822
:1026E00084F842300123A3E011F0400F02F104010D
:1026F0001960D7D0B2F90030002B03DA2D225B42EB
:1027000084F8432062490A2217E02068196810F013
:10271000800F03D0081D18600B6806E010F0400F12
:1027200001F104001860F7D00B8859496F2A14BFD3
:102730000A220822002084F843006568A560002D65
:10274000C0F29C80206820F004002060002B3FD164
:10275000002D40F095807546082A0BD12368DA07D2
:1027600008D5236962689A42DEBF302305F8013C30
:1027700005F1FF35AEEB05032361CDF800803B4644
:1027800003AA21463046FFF7EFFE013055D14FF046
:10279000FF3005B0BDE8F08381F845203C49226850
:1027A000186812F0800F00F104051D6001D0036865
:1027B00002E05506FBD50388D00744BF42F0200253
:1027C00022601BB9226822F0200222601022B1E7A9
:1027D0007546B3FBF2F002FB1033CB5C05F8013D0C
:1027E00003460028F5D1B7E708681A68496910F070
:1027F000800F04D0101D18601368196007E010F0F6
:10280000400F02F1040018601368F6D0198000230D
:1028100023617546B1E71A68111D19601568626871
:1028200000212846FDF7DCFC08B1401B60606368AE
:102830002361002384F843309FE723692A46394601
:102840003046C0470130A2D023689B0707D500253A
:1028500004F11909E368039A9B1A9D4205DBE068BD
:10286000039B9842B8BF184693E701234A4639466E
:102870003046C04701308AD00135EBE7002BA7D1A5
:102880000B7884F8423004F1420565E7543C0008B7
:10289000433C000810B5431E0A44914200D110BDCC
:1028A00011F8014B03F8014FF7E7884210B501EB2F
:1028B000020303D8421E99420CD110BD9842F9D2AE
:1028C0008118D21AD34200D110BD13F8014D01F87E
:1028D000014DF7E711F8014B02F8014FEBE700005B
:1028E00038B50546002945D051F8043C0C1F002B93
:1028F000B8BFE41800F0D6F81F4A1368104633B981
:10290000636014602846BDE8384000F0CCB8A342AC
:102910000CD921686218934204BF1A685B6863602F
:1029200004BF521822600460ECE713465A680AB1EB
:10293000A242FAD919685818A0420BD12068014464
:10294000581882421960DDD1106852685A600144FB
:102950001960D7E702D90C232B60D3E72068211830
:102960008A4204BF11685268626004BF091821607E
:102970005C60C7E738BD00BF9800002070B5CD1C73
:1029800025F0030508350C2D38BF0C25002D064613
:1029900001DBA94203D90C233360002070BD00F095
:1029A00081F8234A1468214691B9224C23681BB947
:1029B000304600F067F820602946304600F062F8A3
:1029C000431C26D10C233360304600F06CF8E4E75A
:1029D0000B685B1B1AD40B2B0FD90B60CD50CC1896
:1029E000304600F060F804F10B00231D20F00700D2
:1029F000C31A1BD05A42E25070BD8C420DBF6368AF
:102A00004B686360136018BF0C46E9E70C464968E1
:102A1000CAE7C41C24F00304A04205D0211A3046A2
:102A200000F030F80130CDD02560D9E770BD00BF8F
:102A3000980000209C000020F8B5074614460E467A
:102A400021B91146BDE8F840FFF798BF22B9FFF75A
:102A500047FF25462846F8BD00F026F884420FD9E6
:102A600021463846FFF78AFF05460028F2D0314656
:102A70002246FFF70FFF31463846FFF731FFE9E7FF
:102A80003546E7E738B5064C00230546084623607F
:102A900001F09EF8431C02D1236803B12B6038BDBE
:102AA000680100207047704751F8040C0028A0F11D
:102AB0000400BCBF0B58C0187047000000000000A5
:102AC0001FB551EC100B1E4A21F00043934206DC67
:102AD0009FED191B00F074FA51EC100B07E0194A36
:102AE000934209DD10EE102A0B46FDF7CDFB41ECB9
:102AF000100B05B05DF804FB684600F06DF800F0BF
:102B0000030001289DED021B9DED000B07D002285C
:102B10000ED00028DED0012000F08AFEDCE700F0B5
:102B200087FE53EC102B10EE100A03F10041DEE794
:102B300000F046FAF5E700BF0000000000000000CA
:102B4000FB21E93FFFFFEF7F1FB551EC100B204A3F
:102B500021F00043934207DC9FED1B1B002000F097
:102B600067FE51EC100B07E01A4A934209DD10EEA4
:102B7000102A0B46FDF788FB41EC100B05B05DF801
:102B800004FB684600F028F800F0030001289DEDE2
:102B9000021B9DED000B04D0022805D070B9012066
:102BA000DDE700F00DFADCE7012000F041FE53EC18
:102BB000102B10EE100A03F10041DDE700F000FADF
:102BC000F5E700BFAFF30080000000000000000048
:102BD000FB21E93FFFFFEF7F2DE9F04F57EC106B32
:102BE000C34B8DB027F0004898450446049707DC96
:102BF0000022002384ED000BC0E90223002527E01A
:102C0000BC4B984575DC049BBB4D002B10EE100AA5
:102C1000A9A3D3E90023394636DDFDF735FBA845E6
:102C200006460F4618D0A6A3D3E90023FDF72CFBD8
:102C300002460B46C4E9002330463946FDF724FB23
:102C40009FA3D3E90023FDF71FFBC4E9020101257F
:102C500028460DB0BDE8F08F9BA3D3E90023FDF714
:102C600013FB9BA3D3E9002306460F46FDF70CFB9D
:102C700002460B46C4E9002330463946FDF704FB03
:102C800093A3D3E90023DEE7FDF700FBA845064642
:102C90000F4616D08AA3D3E90023FDF7F7FA0246C0
:102CA0000B46C4E9002330463946FDF7EDFA84A30C
:102CB000D3E90023FDF7EAFA4FF0FF35C4E902013A
:102CC000C6E781A3D3E90023FDF7E0FA80A3D3E9A7
:102CD000002306460F46FDF7D9FA02460B46C4E923
:102CE000002330463946FDF7CFFA79A3D3E9002314
:102CF000E0E7824B984500F3D08000F053FE57EC9C
:102D0000106B10EE100A74A3D3E900233946FDF7C7
:102D10006FFC00227A4BFDF7B9FAFDF703FF054679
:102D2000FDF700FC64A3D3E90023CDE90201FDF720
:102D30005FFC02460B4630463946FDF7A5FA60A314
:102D4000D3E9002382468B46DDE90201FDF750FC02
:102D50001F2D06460F462ADC6A1E6A4B53F82230A6
:102D6000984524D032463B4650465946FDF78CFAEA
:102D7000C4E90001D4E90089504642464B46594611
:102D8000FDF782FA3B463246FDF77EFA049B002BA4
:102D9000C4E90201BFF65CAF09F100436360C4F807
:102DA0000080A06001F10043E3606D4250E73246CD
:102DB0003B4650465946FDF767FA4FEA2852C1F3A1
:102DC0000A53D31A102BC4E900010592D2DD3EA3A9
:102DD000D3E90023DDE90201FDF70AFC06460F46B0
:102DE00002460B4650465946FDF74EFA02460B4640
:102DF0008046894650465946FDF746FA32463B46DC
:102E0000FDF742FA32A3D3E9002306460F46DDE977
:102E10000201FDF7EDFB32463B46FDF735FA02466F
:102E20000B4606460F4640464946FDF72DFA059AE1
:102E3000C1F30A53D31A312BC4E900012ADD28A3B8
:102E4000D3E90023DDE90201FDF7D2FB06460F4678
:102E500002460B4640464946FDF716FA02460B4627
:102E600082468B4640464946FDF70EFA32463B46BF
:102E7000FDF70AFA1CA3D3E9002306460F46DDE955
:102E80000201FDF7B5FB32463B46FDF7FDF906466C
:102E90000F4667E7C246CB466CE71B4B984535DDCE
:102EA00010EE102A3B4630463946FDF7EDF9C4E9ED
:102EB0000201C4E90001A1E600004054FB21F93FF2
:102EC0003163621A61B4D03D0000601A61B4D03D34
:102ED0007370032E8A19A33B83C8C96D305FE43F2A
:102EE0000000002E8A19A33BC14920259A837B3913
:102EF000FB21E93F7BD90240FB21F93FFB2139410E
:102F00000000E03F683C0008FFFFEF7F4FEA2855D4
:102F1000A5F21645A8EB055130460F46FDF702FE17
:102F2000FDF700FB02460B4630463946CDE9062345
:102F3000FDF7AAF900221F4BFDF75AFB0F46064684
:102F4000FDF7F0FDFDF7EEFA02460B463046394636
:102F5000CDE90823FDF798F90022164BFDF748FB51
:102F6000CDE90A010DF130094FF0030800260027D2
:102F700032463B4679E9020108F1FF3AFDF7A0FD30
:102F8000B0B90D4B0193022300932A4643462146D4
:102F900006A800F0FDF8049B002B0546BFF658AECE
:102FA000636803F100436360E36803F10043FBE6F9
:102FB000D046DDE700007041E83C0008000000005A
:102FC0002DE9F04F59EC108B29F0004785B0B7F18F
:102FD000795F8DED001B07DA10EE100A4946FDF708
:102FE000A1FD002800F0AA8042464B4640464946D3
:102FF000FDF7FEFA59A3D3E9002304460D46FDF779
:10300000F7FA58A3D3E90023FDF740F922462B46EF
:10301000FDF7EEFA55A3D3E90023FDF735F9224673
:103020002B46FDF7E5FA53A3D3E90023FDF72EF96C
:1030300022462B46FDF7DCFA50A3D3E90023FDF727
:1030400023F922462B46FDF7D3FA4EA3D3E90023FA
:10305000FDF71CF92B462246FDF7CAFA3A4B9F4270
:1030600082468B462CDC0022384B20462946FDF751
:10307000BFFA524606460F465B4620462946FDF7F4
:10308000B7FADDE9002304460D4640464946FDF700
:10309000AFFA02460B4620462946FDF7F5F80246F0
:1030A0000B4630463946FDF7EFF80B4628490246F5
:1030B0000020FDF7E9F841EC100B05B0BDE8F08FFA
:1030C000244B23499F42D7BFA7F50013224F00226C
:1030D0001646D4BF1F46002632463B460020FDF769
:1030E000D3F80022CDE90201184B20462946FDF70E
:1030F0007FFA32463B46FDF7C7F8524606460F4672
:103100005B4620462946FDF773FADDE900230446B5
:103110000D4640464946FDF76BFA02460B462046EF
:103120002946FDF7B1F802460B4630463946FDF711
:10313000ABF802460B46DDE90201BAE7002004497C
:10314000B9E700BFAFF300803233D33F0000E03F68
:103150000000F03F0000E93F0000D23FD43888BEB5
:10316000E9FAA8BDC4B1B4BD9EEE213EAD529C802B
:103170004F7E923E9015CB19A001FA3E7751C116B1
:103180006CC1563F4C5555555555A53F00000000A4
:103190002DE9F04F2DED028BADF5197DD41E069370
:1031A0000291C34BA499099053F821300093069BD8
:1031B000013B0493182394FBF3F46FF0170324EA04
:1031C000E47404FB033303EB020A009B049A9FEDB3
:1031D000B48B03EB0208A59BA71A20AE03EB87096B
:1031E0000025454513DD9FEDAE8B0DF5E07B0026F8
:1031F000009B9E4232DC099B0393069B9D1920ABEA
:1032000003EBC503089359EC188B00271FE0EF422E
:1032100007D459F82500FDF785F9E6E802010135E4
:10322000DFE751EC180BF8E70899039D71E90223D9
:103230000891F5E802010395FDF7DAF902460B461D
:1032400040464946FDF722F8013780468946049BEF
:103250009F42E9DDEBE802890136C9E7009B009F48
:103260000CAA02EB83030B93A59B03EB84030A9345
:1032700098AB07F1005B03EBC7030BF1FF3B53E98E
:1032800028894FEACB030893089A98AB1344A3F11B
:10329000980B0026BB1B002B77DC49EC108B5046AB
:1032A00000F00EFC55EC104B00224FF07F5310EE57
:1032B000100A2946FDF79CF941EC100B00F07CFB4D
:1032C000002251EC100B7B4BFDF792F902460B46A6
:1032D00020462946FCF7D8FF0D460446FDF722FCA0
:1032E0000390FDF71FF902460B4620462946FCF7DE
:1032F000CBFFBAF1000F804689466BDD7A1E0CAB1E
:10330000CAF1180153F82200039C40FA01F31C444F
:103310008B40C01A0CAB039443F82200CAF1170388
:1033200040FA03FBBBF1000F62DD039B0022013377
:10333000039314466FF07F41974200F38980BAF1FE
:10334000000F07DDBAF1010F00F09680BAF1020F0D
:1033500000F09C80BBF1020F4AD142464B46002050
:103360005549FCF791FF80468946002C40D05046D5
:103370009FED4D0B00F0A4FB4046494653EC102B4B
:10338000FCF782FF8046894632E000224B4B4046E4
:103390004946FDF72DF9FDF7C5FBFDF7C3F80022FF
:1033A000474B04460D46FDF723F902460B464046BF
:1033B0004946FCF769FFFDF7B5FB0CAB294643F81E
:1033C00026007BE902232046FCF760FF0136804699
:1033D00089465FE706D17B1E0CAA52F823004FEA0C
:1033E000E05B9FE70022374BFDF788FB68BB834615
:1033F0000022002340464946FDF762FB002800F00A
:10340000C1807C1E2346002200998B425CDA002A90
:1034100040F08B8001246FF0030202FB04F30B9950
:10342000CB58002B56D0089B98AA1344A3F1900BBD
:10343000069BDD1920AB03EBC505E3197E1C039346
:10344000039B9E4248DD1F4612E74FF0020B6CE7DC
:103450000CAB53F822304CB92BB10CA8C3F18073DC
:1034600040F82230012301321C4665E70CA8CB1A34
:1034700040F822302346F6E77A1E0CAB53F8223090
:10348000C3F316030CA941F8223063E77A1E0CAB94
:1034900053F82230C3F31503F4E700BFAFF3008005
:1034A0000000000000000000000000000000F03FED
:1034B000303E0008000020400000F03F0000703E59
:1034C000000070410000E03F0CA951F82310013BBF
:1034D0000A4399E70134A0E70A9B53F82600FDF759
:1034E00021F8E5E80201099B08951C4600274FF0EA
:1034F00000084FF00009049B9F4203DDEBE80289BE
:1035000001369DE7089971E902230891F4E8020168
:10351000FDF76EF802460B4640464946FCF7B6FEFC
:10352000013780468946E6E7013C0CABAAF1180A50
:1035300053F82430002BF7D050469FEDB50B00F028
:10354000BFFAE50098AB03EB050957EC106BA9F146
:103550009809A046B8F1000F4DDA9FEDAF8B0DF53D
:10356000907A002304935746049BB4EB030976D466
:10357000AB4B1E4670AB03EBC9098DED068B4FF0CC
:1035800000085EE0CAF1000049EC108B00F098FAE8
:1035900055EC104B0022A34B10EE100A2946FDF704
:1035A000ADFAF8B10022A04B20462946FDF720F8DD
:1035B000FDF7B8FA0646FCF7B5FF0022994BFDF778
:1035C00017F80B46024629462046FCF75DFEFDF73C
:1035D000A9FA7C1C0CAB0AF1180A43F8270043F83F
:1035E0002460A9E720462946FDF79CFA0CAB3C462F
:1035F00043F82700A0E70CAB53F82800FCF792FF34
:1036000032463B46FCF7F4FF002269E90201864B93
:1036100030463946FCF7ECFF08F1FF3806460F4606
:1036200098E7F9E80223F6E80201FCF7E1FF024619
:103630000B46DDE90601FCF729FECDE9060108F19C
:103640000108009B984502DC049B9845E9DD049B3A
:103650009DED067B0133AAEC027B049384E7A49BD7
:10366000032B5DD8DFE803F04B26260298AB1D4400
:10367000A5F59C752E46A246BAF1000F6EDC2E46CB
:10368000A246BAF1010F00F38A8000200021012C2C
:1036900000F3A680BBF1000F40F0A880DDE94823CD
:1036A000029CC4E90023DDE94A23C4E90401C4E91A
:1036B000022335E0083548AB1D4426460020002192
:1036C000002E3CDABBF1000F3FD0024601F100436F
:1036D000029DC5E9002302460B46DDE94801FCF7DF
:1036E000D3FD4AAE0125AC4232DABBF1000F02D065
:1036F00001F100431946029BC3E9020110E098ABB7
:103700001D44A5F59C7500200021002C11DABBF1A9
:10371000000F02D001F100431946029BC3E90001EA
:10372000039B03F007000DF5197DBDEC028BBDE88E
:10373000F08F75E90223FCF7A9FD013CE5E775E987
:103740000223FCF7A3FD013EBAE702460B46BFE7A2
:10375000F6E80223FCF79AFD0135C4E716ED027B7B
:1037600056E9048953EC172B404649468DED007B02
:10377000FCF78CFDCDE9040102460B464046494664
:10378000FCF782FDDDE90023FCF780FD9DED047B65
:1037900066E902010AF1FF3A06ED027B6CE716EDDD
:1037A000027B56E9048953EC172B404649468DEDC0
:1037B000007BFCF76BFDCDE9040102460B46404659
:1037C0004946FCF761FDDDE90023FCF75FFD9DED57
:1037D000047B66E902010AF1FF3A06ED027B50E73D
:1037E00075E90223FCF752FD013C50E7029A3B6861
:1037F00013607B68106103F100435360BB68936002
:10380000FB6803F10043D36001F10043536187E794
:10381000000000000000F03F000000000000000079
:10382000F03D0008000070410000703E0000000004
:103830002DE9F04F55EC104B85B025F00043B3F166
:10384000795F8DED001B029006DA10EE100A294612
:10385000FDF768F9002851D022462B46204629461C
:10386000FCF7C6FE82468B4602460B46204629469A
:10387000FCF7BEFE41A3D3E90023804689465046AB
:103880005946FCF7B5FE3FA3D3E90023FCF7FCFC47
:1038900052465B46FCF7ACFE3CA3D3E90023FCF7A1
:1038A000F5FC52465B46FCF7A3FE3AA3D3E900239E
:1038B000FCF7EAFC52465B46FCF79AFE37A3D3E9D5
:1038C0000023FCF7E3FC029B06460F46DBB90246E9
:1038D0000B4650465946FCF78BFE25A3D3E900233F
:1038E000FCF7D2FC42464B46FCF782FE02460B46F2
:1038F00020462946FCF7CAFC04460D4645EC104B11
:1039000005B0BDE8F08F00221B4BDDE90001FCF79C
:103910006FFE3246CDE902013B4640464946FCF780
:1039200067FE02460B46DDE90201FCF7ADFC52469C
:103930005B46FCF75DFEDDE90023FCF7A5FC0CA36C
:10394000D3E9002306460F4640464946FCF750FEA1
:1039500002460B4630463946FCF798FC02460B46B9
:1039600020462946FCF790FCC6E700BFAFF3008075
:10397000495555555555C53F0000E03F7CD5CF5AB8
:103980003AD9E53DEB9C2B8AE6E55A3E7DFEB157E0
:10399000E31DC73ED561C119A0012A3FA6F8101149
:1039A0001111813F53EC102B23F0004343EC102BFB
:1039B000704700000000000051EC100B2DE9F041B1
:1039C000C1F30A57A7F2FF36132E10EE108A0C46E9
:1039D00010EE105A35DC002E17DA35A3D3E9002398
:1039E000FCF754FC00220023FDF792F850B1002CA4
:1039F0005ADA24F0004353EA08032F4B4FF0000536
:103A000018BF1C462146284625E02C4F374101EAC5
:103A1000070303431FD026A3D3E90023FCF736FC9A
:103A200000220023FDF774F80028EBD0002CBEBF65
:103A30004FF4801343FA06F6A41924EA070400257C
:103A4000E0E7332E0BDDB6F5806F04D110EE102ABF
:103A50000B46FCF71BFC41EC100BBDE8F081A7F214
:103A600013474FF0FF3323FA07F73842F3D010A380
:103A7000D3E90023FCF70AFC00220023FDF748F8F5
:103A80000028BFD0002C02DA142E03D1013425EA1D
:103A90000705B7E70123C6F1340603FA06F63544F5
:103AA000A84588BFE418F2E700252C46AAE700BF26
:103AB0009C7500883CE4377E0000F0BFFFFF0F00DC
:103AC00070B555EC104BC5F30A5206462B46B2B9F9
:103AD00025F0004323433CD00022334B294610EE0F
:103AE000100AFCF785FD314A964204460D460B4606
:103AF00013DA29A3D3E90023FCF77AFD0AE040F2A8
:103B0000FF718A420CD110EE102A2B46204629461E
:103B1000FCF7BCFB04460D461BE0C1F30A52363AE3
:103B2000324440F2FE718A420BDD45EC114B9FEDB1
:103B30001C0B00F03FF81AA3D3E9002351EC100B43
:103B4000DAE7002A08DD23F0FF4323F4E00343EA29
:103B5000025545EC104B70BD12F1350F0DDA4CF2E9
:103B600050339E4245EC114BE1DC9FED0B0B00F016
:103B700021F809A3D3E90023E0E723F0FF4336321D
:103B800023F4E00343EA0255204629460022084B6D
:103B9000B2E700BFAFF3008059F3F8C21F6EA50172
:103BA0009C7500883CE4377E00005043B03CFFFF2A
:103BB0000000903C53EC102B11EE900A23F00041D2
:103BC00000F0004041EA000343EC102B7047000076
:103BD000044B1968024609B9034919601868024480
:103BE0001A607047A00000206C010020F8B500BFEB
:103BF000F8BC08BC9E467047F8B500BFF8BC08BCCE
:043C00009E46704725
:103C0800425702000000010625642025642025642F
:103C18000A0000000000000000000102030406077B
:103C280008090000000001020304232D302B2000A6
:103C3800686C4C006566674546470030313233345E
:103C480035363738394142434445460030313233FE
:103C580034353637383961626364656600000000C0
:103C6800FB21F93FFB2109407CD91240FB21194077
:103C78007A6A1F407CD92240BBFD2540FB212940A0
:103C88003A462C407A6A2F405C4731407CD9324012
:103C98009C6B3440BBFD3540DB8F3740FB213940FE
:103CA8001BB43A403A463C405AD83D407A6A3F40B5
:103CB8004C7E40405C4741406C1042407CD94240B9
:103CC8008CA243409C6B4440AC344540BBFD45400E
:103CD800CBC64640DB8F4740EB584840FB21494064
:103CE80083F9A200444E6E00FC291500D157270025
:103CF800DD34F50062DBC0003C999500419043003B
:103D08006351FE00BBDEAB00B761C5003A6E24000C
:103D1800D24D42004906E00009EA2E001C92D1006B
:103D2800EB1DFE0029B11C00E83EA700F535820016
:103D380044BB2E009CE98400B4267000417E5F00DD
:103D4800D6913900538339009CF439008B5F840085
:103D580028F9BD00F81F3B00DEFF97000F9805000B
:103D6800112FEF000A5A8B006D1F6D00CF7E3600B1
:103D780009CB2700464FB7009E663F002DEA5F003B
:103D8800BA277500E5EBC7003D7BF100F73907005E
:103D980092528A00FB6BEA001FB15F00085D8D003C
:103DA800300356007BFC4600F0AB6B0020BCCF0014
:103DB80036F49A00E3A91D005E619100081BE60035
:103DC80085996500A0145F008D40680080D8FF00C9
:103DD80027734D0006063100CA561500C9A873009E
:103DE8007BE260006B8CC00000000040FB21F93FC3
:103DF800000000002D44743E000000809846F83C06
:103E08000000006051CC783B00000080831BF03933
:103E18000000004020257A38000000802282E33626
:103E2800000000001DF369350200000003000000D7
:083E3800040000000600000078
:083E400064CDFF7F01000000CA
:043E4800C5010008A8
:043E4C00A1010008C8
:103E500001000000100000000024F4001000002009
:103E60000000000000000000000000000000000052
:103E70000000000000000000000000000000000042
:103E80000000000000000000000000000000000032
:103E90000000000000000000000000000000000022
:103EA0000000000000000000000000000000000012
:103EB0000000000000000000000000000000000002
:04000005080021D5F9
:00000001FF
